{
  "_format": "hh-sol-artifact-1",
  "contractName": "Escrow",
  "sourceName": "contracts/Escrow.sol",
  "abi": [
    {
      "inputs": [
        {
          "internalType": "address",
          "name": "_verifier",
          "type": "address"
        }
      ],
      "stateMutability": "nonpayable",
      "type": "constructor"
    },
    {
      "anonymous": false,
      "inputs": [
        {
          "indexed": true,
          "internalType": "uint256",
          "name": "jobId",
          "type": "uint256"
        },
        {
          "indexed": true,
          "internalType": "address",
          "name": "worker",
          "type": "address"
        },
        {
          "indexed": false,
          "internalType": "uint256",
          "name": "jobAmount",
          "type": "uint256"
        }
      ],
      "name": "FundsReleased",
      "type": "event"
    },
    {
      "anonymous": false,
      "inputs": [
        {
          "indexed": true,
          "internalType": "uint256",
          "name": "jobId",
          "type": "uint256"
        },
        {
          "indexed": true,
          "internalType": "address",
          "name": "client",
          "type": "address"
        },
        {
          "indexed": true,
          "internalType": "address",
          "name": "worker",
          "type": "address"
        },
        {
          "indexed": false,
          "internalType": "uint256",
          "name": "jobAmount",
          "type": "uint256"
        }
      ],
      "name": "JobCreated",
      "type": "event"
    },
    {
      "anonymous": false,
      "inputs": [
        {
          "indexed": true,
          "internalType": "uint256",
          "name": "jobId",
          "type": "uint256"
        },
        {
          "indexed": false,
          "internalType": "bool",
          "name": "isApproved",
          "type": "bool"
        }
      ],
      "name": "JobReviewed",
      "type": "event"
    },
    {
      "anonymous": false,
      "inputs": [
        {
          "indexed": true,
          "internalType": "uint256",
          "name": "jobId",
          "type": "uint256"
        },
        {
          "indexed": false,
          "internalType": "string",
          "name": "resultHash",
          "type": "string"
        }
      ],
      "name": "JobSubmitted",
      "type": "event"
    },
    {
      "inputs": [
        {
          "internalType": "uint256",
          "name": "_jobId",
          "type": "uint256"
        },
        {
          "internalType": "bool",
          "name": "_isApproved",
          "type": "bool"
        }
      ],
      "name": "approve",
      "outputs": [],
      "stateMutability": "nonpayable",
      "type": "function"
    },
    {
      "inputs": [
        {
          "internalType": "address payable",
          "name": "_worker",
          "type": "address"
        }
      ],
      "name": "createJob",
      "outputs": [
        {
          "internalType": "uint256",
          "name": "",
          "type": "uint256"
        }
      ],
      "stateMutability": "payable",
      "type": "function"
    },
    {
      "inputs": [],
      "name": "jobCount",
      "outputs": [
        {
          "internalType": "uint256",
          "name": "",
          "type": "uint256"
        }
      ],
      "stateMutability": "view",
      "type": "function"
    },
    {
      "inputs": [
        {
          "internalType": "uint256",
          "name": "",
          "type": "uint256"
        }
      ],
      "name": "jobs",
      "outputs": [
        {
          "internalType": "address payable",
          "name": "client",
          "type": "address"
        },
        {
          "internalType": "address payable",
          "name": "worker",
          "type": "address"
        },
        {
          "internalType": "uint256",
          "name": "jobAmount",
          "type": "uint256"
        },
        {
          "internalType": "string",
          "name": "resultHash",
          "type": "string"
        },
        {
          "internalType": "enum Escrow.JobStatus",
          "name": "status",
          "type": "uint8"
        }
      ],
      "stateMutability": "view",
      "type": "function"
    },
    {
      "inputs": [
        {
          "internalType": "uint256",
          "name": "_jobId",
          "type": "uint256"
        }
      ],
      "name": "releaseFunds",
      "outputs": [],
      "stateMutability": "nonpayable",
      "type": "function"
    },
    {
      "inputs": [
        {
          "internalType": "uint256",
          "name": "_jobId",
          "type": "uint256"
        },
        {
          "internalType": "string",
          "name": "_resultHash",
          "type": "string"
        }
      ],
      "name": "submitResult",
      "outputs": [],
      "stateMutability": "nonpayable",
      "type": "function"
    },
    {
      "inputs": [],
      "name": "verifier",
      "outputs": [
        {
          "internalType": "address",
          "name": "",
          "type": "address"
        }
      ],
      "stateMutability": "view",
      "type": "function"
    }
  ],
  "bytecode": "0x60806040523480156200001157600080fd5b5060405162001a5238038062001a528339818101604052810190620000379190620000e8565b806000806101000a81548173ffffffffffffffffffffffffffffffffffffffff021916908373ffffffffffffffffffffffffffffffffffffffff160217905550506200011a565b600080fd5b600073ffffffffffffffffffffffffffffffffffffffff82169050919050565b6000620000b08262000083565b9050919050565b620000c281620000a3565b8114620000ce57600080fd5b50565b600081519050620000e281620000b7565b92915050565b6000602082840312156200010157620001006200007e565b5b60006200011184828501620000d1565b91505092915050565b611928806200012a6000396000f3fe6080604052600436106100705760003560e01c80634d68282f1161004e5780634d68282f1461010c578063747442d3146101355780638c0dd79a1461015e578063d004e9851461018757610070565b8063180aedf3146100755780632b7ac3f3146100b65780634c5d8a0f146100e1575b600080fd5b34801561008157600080fd5b5061009c60048036038101906100979190610b94565b6101b7565b6040516100ad959493929190610d18565b60405180910390f35b3480156100c257600080fd5b506100cb6102c2565b6040516100d89190610d93565b60405180910390f35b3480156100ed57600080fd5b506100f66102e6565b6040516101039190610dae565b60405180910390f35b34801561011857600080fd5b50610133600480360381019061012e9190610b94565b6102ec565b005b34801561014157600080fd5b5061015c60048036038101906101579190610e01565b610504565b005b34801561016a57600080fd5b5061018560048036038101906101809190610ea6565b6106c4565b005b6101a1600480360381019061019c9190610f32565b6108ac565b6040516101ae9190610dae565b60405180910390f35b60026020528060005260406000206000915090508060000160009054906101000a900473ffffffffffffffffffffffffffffffffffffffff16908060010160009054906101000a900473ffffffffffffffffffffffffffffffffffffffff169080600201549080600301805461022c90610f8e565b80601f016020809104026020016040519081016040528092919081815260200182805461025890610f8e565b80156102a55780601f1061027a576101008083540402835291602001916102a5565b820191906000526020600020905b81548152906001019060200180831161028857829003601f168201915b5050505050908060040160009054906101000a900460ff16905085565b60008054906101000a900473ffffffffffffffffffffffffffffffffffffffff1681565b60015481565b60006002600083815260200190815260200160002090506002600481111561031757610316610ca1565b5b8160040160009054906101000a900460ff16600481111561033b5761033a610ca1565b5b1461037b576040517f08c379a000000000000000000000000000000000000000000000000000000000815260040161037290611031565b60405180910390fd5b60048160040160006101000a81548160ff021916908360048111156103a3576103a2610ca1565b5b02179055506000816002015490506000826002018190555060008260010160009054906101000a900473ffffffffffffffffffffffffffffffffffffffff1673ffffffffffffffffffffffffffffffffffffffff168260405161040590611082565b60006040518083038185875af1925050503d8060008114610442576040519150601f19603f3d011682016040523d82523d6000602084013e610447565b606091505b505090508061048b576040517f08c379a0000000000000000000000000000000000000000000000000000000008152600401610482906110e3565b60405180910390fd5b8260010160009054906101000a900473ffffffffffffffffffffffffffffffffffffffff1673ffffffffffffffffffffffffffffffffffffffff16847f6e3c6096795c8298a218b2cfb8bde42726ff7c9a3d27b4d3ba41ab7f74feb5fb846040516104f69190610dae565b60405180910390a350505050565b60008054906101000a900473ffffffffffffffffffffffffffffffffffffffff1673ffffffffffffffffffffffffffffffffffffffff163373ffffffffffffffffffffffffffffffffffffffff1614610592576040517f08c379a000000000000000000000000000000000000000000000000000000000815260040161058990611175565b60405180910390fd5b6000600260008481526020019081526020016000209050600160048111156105bd576105bc610ca1565b5b8160040160009054906101000a900460ff1660048111156105e1576105e0610ca1565b5b14610621576040517f08c379a0000000000000000000000000000000000000000000000000000000008152600401610618906111e1565b60405180910390fd5b81156106595760028160040160006101000a81548160ff0219169083600481111561064f5761064e610ca1565b5b0217905550610687565b60038160040160006101000a81548160ff0219169083600481111561068157610680610ca1565b5b02179055505b827f8cd976d4f171412f9c085f263f9b406e7d98a7737f390717af42d1cd2d85b9db836040516106b79190611210565b60405180910390a2505050565b6000600260008581526020019081526020016000209050600060048111156106ef576106ee610ca1565b5b8160040160009054906101000a900460ff16600481111561071357610712610ca1565b5b14610753576040517f08c379a000000000000000000000000000000000000000000000000000000000815260040161074a90611277565b60405180910390fd5b8060010160009054906101000a900473ffffffffffffffffffffffffffffffffffffffff1673ffffffffffffffffffffffffffffffffffffffff163373ffffffffffffffffffffffffffffffffffffffff16146107e5576040517f08c379a00000000000000000000000000000000000000000000000000000000081526004016107dc90611309565b60405180910390fd5b6000838390501161082b576040517f08c379a000000000000000000000000000000000000000000000000000000000815260040161082290611375565b60405180910390fd5b828282600301918261083e92919061157b565b5060018160040160006101000a81548160ff0219169083600481111561086757610866610ca1565b5b0217905550837fb8999aef712cba220c1a403ffdf9036216ef4fdafa220cb7e664e9f467ece50f848460405161089e929190611687565b60405180910390a250505050565b60008034116108f0576040517f08c379a00000000000000000000000000000000000000000000000000000000081526004016108e79061171d565b60405180910390fd5b600073ffffffffffffffffffffffffffffffffffffffff168273ffffffffffffffffffffffffffffffffffffffff160361095f576040517f08c379a000000000000000000000000000000000000000000000000000000000815260040161095690611789565b60405180910390fd5b60016000815480929190610972906117d8565b91905055506040518060a001604052803373ffffffffffffffffffffffffffffffffffffffff1681526020018373ffffffffffffffffffffffffffffffffffffffff168152602001348152602001604051806020016040528060008152508152602001600060048111156109e9576109e8610ca1565b5b81525060026000600154815260200190815260200160002060008201518160000160006101000a81548173ffffffffffffffffffffffffffffffffffffffff021916908373ffffffffffffffffffffffffffffffffffffffff16021790555060208201518160010160006101000a81548173ffffffffffffffffffffffffffffffffffffffff021916908373ffffffffffffffffffffffffffffffffffffffff160217905550604082015181600201556060820151816003019081610aae9190611820565b5060808201518160040160006101000a81548160ff02191690836004811115610ada57610ad9610ca1565b5b02179055509050508173ffffffffffffffffffffffffffffffffffffffff163373ffffffffffffffffffffffffffffffffffffffff166001547f8f4ee83cefe0dfb2f73fe6057bfa5b233fc43358bbb5f5606f444cbd4c5c4f8c34604051610b429190610dae565b60405180910390a46001549050919050565b600080fd5b600080fd5b6000819050919050565b610b7181610b5e565b8114610b7c57600080fd5b50565b600081359050610b8e81610b68565b92915050565b600060208284031215610baa57610ba9610b54565b5b6000610bb884828501610b7f565b91505092915050565b600073ffffffffffffffffffffffffffffffffffffffff82169050919050565b6000610bec82610bc1565b9050919050565b610bfc81610be1565b82525050565b610c0b81610b5e565b82525050565b600081519050919050565b600082825260208201905092915050565b60005b83811015610c4b578082015181840152602081019050610c30565b60008484015250505050565b6000601f19601f8301169050919050565b6000610c7382610c11565b610c7d8185610c1c565b9350610c8d818560208601610c2d565b610c9681610c57565b840191505092915050565b7f4e487b7100000000000000000000000000000000000000000000000000000000600052602160045260246000fd5b60058110610ce157610ce0610ca1565b5b50565b6000819050610cf282610cd0565b919050565b6000610d0282610ce4565b9050919050565b610d1281610cf7565b82525050565b600060a082019050610d2d6000830188610bf3565b610d3a6020830187610bf3565b610d476040830186610c02565b8181036060830152610d598185610c68565b9050610d686080830184610d09565b9695505050505050565b6000610d7d82610bc1565b9050919050565b610d8d81610d72565b82525050565b6000602082019050610da86000830184610d84565b92915050565b6000602082019050610dc36000830184610c02565b92915050565b60008115159050919050565b610dde81610dc9565b8114610de957600080fd5b50565b600081359050610dfb81610dd5565b92915050565b60008060408385031215610e1857610e17610b54565b5b6000610e2685828601610b7f565b9250506020610e3785828601610dec565b9150509250929050565b600080fd5b600080fd5b600080fd5b60008083601f840112610e6657610e65610e41565b5b8235905067ffffffffffffffff811115610e8357610e82610e46565b5b602083019150836001820283011115610e9f57610e9e610e4b565b5b9250929050565b600080600060408486031215610ebf57610ebe610b54565b5b6000610ecd86828701610b7f565b935050602084013567ffffffffffffffff811115610eee57610eed610b59565b5b610efa86828701610e50565b92509250509250925092565b610f0f81610be1565b8114610f1a57600080fd5b50565b600081359050610f2c81610f06565b92915050565b600060208284031215610f4857610f47610b54565b5b6000610f5684828501610f1d565b91505092915050565b7f4e487b7100000000000000000000000000000000000000000000000000000000600052602260045260246000fd5b60006002820490506001821680610fa657607f821691505b602082108103610fb957610fb8610f5f565b5b50919050565b7f4a6f622066756e64732063616e206f6e6c792062652072656c6561736564206960008201527f662073746174757320697320417070726f766564000000000000000000000000602082015250565b600061101b603483610c1c565b915061102682610fbf565b604082019050919050565b6000602082019050818103600083015261104a8161100e565b9050919050565b600081905092915050565b50565b600061106c600083611051565b91506110778261105c565b600082019050919050565b600061108d8261105f565b9150819050919050565b7f4661696c656420746f2073656e6420457468657220746f20776f726b65720000600082015250565b60006110cd601e83610c1c565b91506110d882611097565b602082019050919050565b600060208201905081810360008301526110fc816110c0565b9050919050565b7f4f6e6c79207468652064657369676e617465642076657269666965722063616e60008201527f2063616c6c207468697300000000000000000000000000000000000000000000602082015250565b600061115f602a83610c1c565b915061116a82611103565b604082019050919050565b6000602082019050818103600083015261118e81611152565b9050919050565b7f4a6f62206973206e6f7420696e205375626d6974746564207374617465000000600082015250565b60006111cb601d83610c1c565b91506111d682611195565b602082019050919050565b600060208201905081810360008301526111fa816111be565b9050919050565b61120a81610dc9565b82525050565b60006020820190506112256000830184611201565b92915050565b7f4a6f62206973206e6f7420696e20437265617465642073746174650000000000600082015250565b6000611261601b83610c1c565b915061126c8261122b565b602082019050919050565b6000602082019050818103600083015261129081611254565b9050919050565b7f4f6e6c792074686520776f726b65722063616e207375626d697420726573756c60008201527f7400000000000000000000000000000000000000000000000000000000000000602082015250565b60006112f3602183610c1c565b91506112fe82611297565b604082019050919050565b60006020820190508181036000830152611322816112e6565b9050919050565b7f526573756c7420686173682063616e6e6f7420626520656d7074790000000000600082015250565b600061135f601b83610c1c565b915061136a82611329565b602082019050919050565b6000602082019050818103600083015261138e81611352565b9050919050565b600082905092915050565b7f4e487b7100000000000000000000000000000000000000000000000000000000600052604160045260246000fd5b60008190508160005260206000209050919050565b60006020601f8301049050919050565b600082821b905092915050565b6000600883026114317fffffffffffffffffffffffffffffffffffffffffffffffffffffffffffffffff826113f4565b61143b86836113f4565b95508019841693508086168417925050509392505050565b6000819050919050565b600061147861147361146e84610b5e565b611453565b610b5e565b9050919050565b6000819050919050565b6114928361145d565b6114a661149e8261147f565b848454611401565b825550505050565b600090565b6114bb6114ae565b6114c6818484611489565b505050565b5b818110156114ea576114df6000826114b3565b6001810190506114cc565b5050565b601f82111561152f57611500816113cf565b611509846113e4565b81016020851015611518578190505b61152c611524856113e4565b8301826114cb565b50505b505050565b600082821c905092915050565b600061155260001984600802611534565b1980831691505092915050565b600061156b8383611541565b9150826002028217905092915050565b6115858383611395565b67ffffffffffffffff81111561159e5761159d6113a0565b5b6115a88254610f8e565b6115b38282856114ee565b6000601f8311600181146115e257600084156115d0578287013590505b6115da858261155f565b865550611642565b601f1984166115f0866113cf565b60005b82811015611618578489013582556001820191506020850194506020810190506115f3565b868310156116355784890135611631601f891682611541565b8355505b6001600288020188555050505b50505050505050565b82818337600083830152505050565b60006116668385610c1c565b935061167383858461164b565b61167c83610c57565b840190509392505050565b600060208201905081810360008301526116a281848661165a565b90509392505050565b7f457363726f7720616d6f756e74206d757374206265206772656174657220746860008201527f616e207a65726f00000000000000000000000000000000000000000000000000602082015250565b6000611707602783610c1c565b9150611712826116ab565b604082019050919050565b60006020820190508181036000830152611736816116fa565b9050919050565b7f576f726b657220616464726573732063616e6e6f74206265207a65726f000000600082015250565b6000611773601d83610c1c565b915061177e8261173d565b602082019050919050565b600060208201905081810360008301526117a281611766565b9050919050565b7f4e487b7100000000000000000000000000000000000000000000000000000000600052601160045260246000fd5b60006117e382610b5e565b91507fffffffffffffffffffffffffffffffffffffffffffffffffffffffffffffffff8203611815576118146117a9565b5b600182019050919050565b61182982610c11565b67ffffffffffffffff811115611842576118416113a0565b5b61184c8254610f8e565b6118578282856114ee565b600060209050601f83116001811461188a5760008415611878578287015190505b611882858261155f565b8655506118ea565b601f198416611898866113cf565b60005b828110156118c05784890151825560018201915060208501945060208101905061189b565b868310156118dd57848901516118d9601f891682611541565b8355505b6001600288020188555050505b50505050505056fea2646970667358221220d95cb8abfae5d8b8be012236e5bd08179b6b2b17430201fbd437a2c5b8d6cb2d64736f6c63430008140033",
  "linkReferences": {},
  "deployedLinkReferences": {}
}